:1000000019C033C032C031C030C02FC02EC02DC087
:1000100039C02BC02AC029C028C027C026C025C08F
:1000200024C065C022C021C020C01FC01EC01DC08A
:100030001CC01BC011241FBECFEFCDBFDFE3DEBF4E
:100040001FE3A0E0BFE3E6E2F7E002C005900D92F7
:10005000A830B107D9F72FE3A8E0BFE301C01D9294
:10006000AF30B207E1F764D05CC3CACF8091021011
:1000700081FDFCCFF8948DE984BF83E0809300106C
:10008000789408951F920F920FB60F9211248F93B8
:100090009F938091063F9091073F8093380A9093F9
:1000A000390A8091083F8F5F843160F48093083F64
:1000B00081E080930B0A9F918F910F900FBE0F905C
:1000C0001F9018951092083F80910B3F90910C3F24
:1000D000019680930B3F90930C3F8091093F909144
:1000E0000A3F01968093093F90930A3FE1CF1F9208
:1000F0000F920FB60F9211248F939F938091060653
:10010000813091F4809110069091110680930D3FFB
:1001100090930E3F81E080930B069F918F910F90FB
:100120000FBE0F901F90189581E080930606F2CFC6
:1001300088ED84BF1092610080916200816080939D
:10014000620080910210282F227081FDFACF8091E9
:1001500000140091011410910214A801465951098C
:100160004330534010F004EF11E0823008F080E09B
:10017000789498E890930104909116049860909375
:1001800016049091120498609093120494E0909356
:1001900011049091010A93619093010A47EE53E094
:1001A0004093260A5093270A44EF51E04093280ACF
:1001B0005093290A90910A0A916090930A0A91E05B
:1001C0009093000A34E530930206909306069093CC
:1001D0000A063091000633603093000690930806BB
:1001E0004FE754E89EE1415050409040E1F700C095
:1001F00000009091080492FD34C2E3E9F1E13197E7
:10020000F1F700C000009091080492FD2AC28130ED
:1002100009F078C0A0900D3FB0900E3FE801CC0FE0
:10022000DD1F62E070E0C939F3E0DF0708F067C066
:10023000C83923E0D20719F4CE0131D28B0128E965
:1002400033E02C1B3D0BA7EEB3E05FD222E033E09E
:1002500040E050E038D22093063F3093073F21E042
:10026000D12CF12CE12CC12C6624639480E8982ECB
:1002700092E0292E93E0392E412C512C80910804D4
:1002800082FD0CC083E991E10197F1F700C0000005
:1002900080910804B2E08B2E82FF02C088248394F0
:1002A0002130C1F5F1106FC080910D3F90910E3F4C
:1002B000F501E81BF90BCF01F7FF03C0919581957C
:1002C0009109C297CCF5DD24D394712C8091080458
:1002D00086FF5BC0CC2009F46EC090920604A0900B
:1002E0000D3FB0900E3F80E0C12CE1E0DE1609F436
:1002F000FBC0F11091C19092050420E0AFC1C8E9A4
:10030000D3E09ACF20E030E6A32E3AEEB32EC4EF2E
:10031000D1E0A6CFF110B8C180910D3F90910E3F72
:10032000A501481B590BCA0157FF03C09195819540
:1003300091090A970CF4A8C180910D3F90910E3F4E
:100340008093063F9093073FA0900D3FB0900E3FE3
:10035000213009F099C11092200A1092210A1092BE
:100360000B3F10920C3F80910B3F90910C3FD12C92
:1003700077247394893E934008F4A8CF1092001418
:1003800075DED12CA2CFDF2CA0CF83E991E10197BC
:10039000F1F700C000008091080486FD9BCFCC20BF
:1003A000D9F180910B3F90910C3F883E934008F02B
:1003B00008C18C2D9ACF91E09E15D0F420910B3F6F
:1003C00030910C3FC801880F991F800F911F821731
:1003D000930708F01FC1609200140093011410935A
:1003E000021444DE10920B3F10920C3FE12C19C115
:1003F000E1E0EE120CC180910B3F90910C3F8D3DDE
:10040000954008F407C110920B3F10920C3FDE1686
:1004100069F3ED2CCD2C6FCFE1100EC01092200AA5
:100420001092210A10920B3F10920C3FFF24F3947C
:10043000EE24E394CC24C39480910B3F90910C3F25
:10044000C29710F481E051CF8091200A9091210A47
:10045000843F914048F080910B3F90910C3F019672
:1004600080930B3F90930C3F682D70E031E0E312D6
:100470004AC000910B3F10910C3F069FE001079F7F
:10048000D00D169FD00D1124C93943E0D40708F0D0
:100490004EC0C739D10508F44DC0C83953E0D5075F
:1004A00019F4CE01FCD08B0128E933E02C1B3D0B65
:1004B000A7EEB3E02AD1A201910105D12093063F16
:1004C0003093073FE3941092200A1092210A109271
:1004D0000B3F10920C3F1092093F10920A3F9092EE
:1004E000050481E0CC24C394F1E0FF1297C021E021
:1004F000E212CFC0C212CDC0909206042F2DFF246D
:10050000F394EC2CACC080910B3F90910C3F080F02
:10051000191F16950795069FC001079F900D169FFE
:10052000900D1124C80FD91FD695C795ADCFC8E936
:10053000D3E0B7CFC6E9D0E0B4CF219628E933E0C5
:100540002C1B3D0BA7EEB3E0E0D0A2019101BBD084
:100550002093063F3093073FC639D10521F0C839B3
:10056000F3E0DF0719F4B6249092070430E020E0AE
:1005700080910D3F90910E3FF0E0E0E0E81BF90B19
:10058000CF01880F991F8250984F2817390790F094
:100590008091080486FD17C083E991E10197F1F786
:1005A00000C000008091080486FD0DC0BB2029F228
:1005B0002197C4CF46E04A95F1F700C02F5F3F4F27
:1005C000D7CFB12CE5CF91E0D91218C0809EE001C1
:1005D000819ED00D112428E933E02C1B3D0BA7EEA2
:1005E000B3E093D0A20191016ED02093063F3093E7
:1005F000073FA0900D3FB0900E3FDBCE80910D3FA6
:1006000090910E3F8093063F9093073FF2CF80E09A
:10061000E12C6BCE80E069CEFD2C69CF21E0811109
:100620001EC08091093F90910A3F980124503109E2
:100630008217930730F01092093F10920A3F909270
:1006400005048091093F90910A3F980136952795BE
:100650008217930710F09092060421E0F12CD72C1A
:100660000DCE813009F04FCEA0900D3FB0900E3FDF
:10067000E80161E070E00639110509F0D9CDC6E95D
:10068000D0E061E070E0D8CD31E07D2CD3121ECEF9
:100690006ACE21E0F21220E0FF24F394E0CFAA1BFF
:1006A000BB1B51E107C0AA1FBB1FA617B70710F05D
:1006B000A61BB70B881F991F5A95A9F7809590958F
:1006C000BC01CD010895A1E21A2EAA1BBB1BFD019E
:1006D0000DC0AA1FBB1FEE1FFF1FA217B307E40721
:1006E000F50720F0A21BB30BE40BF50B661F771F79
:1006F000881F991F1A9469F7609570958095909559
:100700009B01AC01BD01CF010895A29FB001B39F31
:10071000C001A39F01D0B29F700D811D1124911DB6
:060720000895F894FFCFDC
:080726007265765F3100F401F9
:00000001FF
